:020000040800F2
:1000000000000220A9110008AD0D0008AF0D000886
:10001000B10D0008B30D0008B50D00080000000088
:10002000000000000000000000000000B70D000804
:10003000B90D000800000000BB0D0008BD0D000850
:10004000F9110008F9110008F9110008F911000868
:10005000F9110008F9110008F9110008F911000858
:10006000F9110008F9110008F9110008C50D000880
:10007000F9110008F9110008F9110008F911000838
:10008000D50D0008F9110008F9110008F911000850
:10009000F9110008F9110008F9110008F911000818
:1000A000F9110008E50D0008F9110008F911000820
:1000B000F9110008F9110008F9110008F9110008F8
:1000C000F9110008F9110008F9110008F9110008E8
:1000D000F9110008F9110008F9110008F9110008D8
:1000E000F9110008F9110008F9110008F9110008C8
:1000F000F9110008F50D0008F9110008F9110008C0
:10010000F9110008F9110008F9110008050E00089E
:10011000F9110008F9110008F9110008F911000897
:10012000150E0008F9110008250E0008350E00080C
:10013000F91100080000000000000000F91100089B
:10014000F9110008F9110008F9110008450E00081E
:10015000F9110008F9110008F9110008F911000857
:10016000F9110008F9110008F9110008F911000847
:10017000F9110008F911000800000000000000005B
:08018000F9110008F911000853
:1001880053B94AB9002908BF00281CBF4FF0FF31F6
:100198004FF0FF3000F0E2B8ADF1080C6DE904CE85
:1001A80007F038FBDDF804E0DDE9022304B070470E
:1001B80000F1340191E838009C46A6464CF8045DED
:1001C80090E8FF0FE54600BD90EC210B704700BF9B
:1001D80080EC210B704700BF90EC200B704700BFEC
:1001E80080EC200B704700BFD0EC200B704700BF9D
:1001F800C0EC200B704700BFF0EC0201F0EC0211DC
:10020800F0EC0221F0EC0231F0EC0241F0EC02518A
:10021800F0EC0261F0EC0271F0EC0281F0EC02917A
:10022800F0EC02A1F0EC02B1F0EC02C1F0EC02D16A
:10023800F0EC02E1F0EC02F1704700BFE0EC0201E3
:10024800E0EC0211E0EC0221E0EC0231E0EC0241CA
:10025800E0EC0251E0EC0261E0EC0271E0EC0281BA
:10026800E0EC0291E0EC02A1E0EC02B1E0EC02C1AA
:10027800E0EC02D1E0EC02E1E0EC02F1704700BFF3
:10028800B0FC0181B0FC0191B0FC01A1B0FC01B14E
:10029800704700BFA0FC0181A0FC0191A0FC01A156
:1002A800A0FC01B1704700BFEC4600B52DE9005035
:1002B8002DE9FF1F4FF000032DE90C0001A907F0FD
:1002C8005BFDDDF840E012B0704700BFEC4600B5BA
:1002D8002DE900502DE9FF1F4FF000032DE90C0018
:1002E80001A907F085FDDDF840E012B0704700BFB6
:1002F800EC4600B52DE900502DE9FF1F4FF0000333
:100308002DE90C0001A907F093FDDDF840E012B0DB
:10031800704700BFEC4600B52DE900502DE9FF1FDE
:100328004FF000032DE90C0001AB07F059FDDDF893
:1003380040E012B0704700BFEC4600B52DE9005010
:100348002DE9FF1F4FF000032DE90C0001AA07F06B
:10035800C3FDDDF840E012B0704700BF704700BF32
:10036800844641EA000313F003036DD1403A41D3B8
:1003780051F8043B40F8043B51F8043B40F8043B77
:1003880051F8043B40F8043B51F8043B40F8043B67
:1003980051F8043B40F8043B51F8043B40F8043B57
:1003A80051F8043B40F8043B51F8043B40F8043B47
:1003B80051F8043B40F8043B51F8043B40F8043B37
:1003C80051F8043B40F8043B51F8043B40F8043B27
:1003D80051F8043B40F8043B51F8043B40F8043B17
:1003E80051F8043B40F8043B51F8043B40F8043B07
:1003F800403ABDD2303211D351F8043B40F8043BA7
:1004080051F8043B40F8043B51F8043B40F8043BE6
:1004180051F8043B40F8043B103AEDD20C3205D3B6
:1004280051F8043B40F8043B043AF9D2043208D0AE
:10043800D2071CBF11F8013B00F8013B01D30B8820
:1004480003806046704700BF082A13D38B078DD0FE
:1004580010F003038AD0C3F10403D21ADB071CBFD0
:1004680011F8013B00F8013B80D331F8023B20F83A
:10047800023B7BE7043AD9D3013A11F8013B00F873
:10048800013BF9D20B7803704B7843708B788370FB
:10049800604670470348044B834202D0034B03B1C4
:1004A80018477047FC000020FC00002000000000F6
:1004B8000548064B1B1AD90F01EBA301491002D0BE
:1004C800034B03B118477047FC000020FC000020D4
:1004D8000000000010B5064C237843B9FFF7DAFF97
:1004E800044B13B10448AFF300800123237010BDFF
:1004F800FC000020000000008C89000808B5054BAE
:100508001BB105490548AFF30080BDE80840FFF777
:10051800CFBF00BF00000000000100208C89000848
:1005280010B58CB00024089409940A940B942022E6
:100538002146684608F044F92148224B03604FF4ED
:100548008033436084600461047680F82040C4628C
:100558001D4B8362C4600123C36180F8304043614E
:1005680000F048FF18BB0F230893012309930023C9
:100578000A9308A9124801F083F8D8B90623009312
:10058800012301930493002302934FF4401207922E
:100598004FF4803206928DF815308DF8143003939D
:1005A8006946074801F0B8F938B90CB010BD00F039
:1005B8002FFAD8E700F02CFAE0E700F029FAF4E780
:1005C80008020020002001400100000F10B58CB087
:1005D8000024089409940A940B9420222146684622
:1005E80008F0EEF82048214B03604FF48033436055
:1005F80084600461047680F82040C4621C4B8362E6
:10060800C4600123C36180F83040436100F0F2FE0A
:1006180008BB0A2308930123099300230A9308A916
:10062800114801F02DF8C8B90A230093012301935A
:100638000493002302934FF48012079206938DF8D7
:1006480015308DF8143003936946074801F064F9B2
:1006580038B90CB010BD00F0DBF9DAE700F0D8F9D2
:10066800E2E700F0D5F9F4E7C001002000210140DD
:100678000100000F10B58CB00024089409940A9466
:100688000B9420222146684608F09AF82048214B0E
:1006980003604FF48033436084600461047680F81B
:1006A8002040C4621C4B8362C4600123C36180F88C
:1006B8003040436100F09EFE08BB0B2308930123E2
:1006C800099300230A9308A9114800F0D9FFC8B973
:1006D8000B230093012301930493002302934FF407
:1006E8008012079206938DF815308DF81430039315
:1006F8006946074801F010F938B90CB010BD00F090
:1007080087F9DAE700F084F9E2E700F081F9F4E725
:1007180078010020002201400100000F70B58CB064
:1007280000230793089309930A930B9303684C4A91
:10073800934207D04B4A934253D04B4A93426FD0CF
:100748000CB070BD044600250095484B5A6C42F425
:1007580080725A645A6C02F480720092009A019571
:100768001A6B42F001021A631A6B02F0010201923D
:10077800019A02951A6B42F004021A631B6B03F08C
:1007880004030293029B402307930326089607A9B4
:10079800374801F05BFC202307930896099507A9C1
:1007A800344801F053FC3448344B0360456085609D
:1007B800C5604FF4806303614FF4006343614FF4F5
:1007C800005383614FF48073C3610562456201F091
:1007D800A1FA18B9284BA3639C63B1E700F018F994
:1007E800F8E700210391214B5A6C42F400725A64D5
:1007F8005A6C02F400720392039A04911A6B42F045
:1008080004021A631B6B03F004030493049B012383
:1008180007930323089307A9164801F017FC8FE7ED
:1008280000210591114B5A6C42F480625A645A6C4B
:1008380002F480620592059A06911A6B42F004024E
:100848001A631B6B03F004030693069B02230793AA
:100858000323089307A9074801F0F8FB70E700BFD6
:1008680000200140002101400022014000380240E0
:1008780000000240000802401801002010640240F5
:1008880010B582B0002400941E4B1A6B42F400127B
:100898001A631A6B02F400120092009A01941A6B00
:1008A80042F480021A631B6B03F480030193019BDB
:1008B800224621460B2001F07BF90B2001F088F934
:1008C80022462146102001F073F9102001F080F92A
:1008D80022462146382001F06BF9382001F078F9DA
:1008E800224621463A2001F063F93A2001F070F9D6
:1008F800224621463B2001F05BF93B2001F068F9D4
:1009080002B010BD003802402DE9F0418AB0002441
:10091800059406940794089409940094374B1A6B2D
:1009280042F004021A631A6B02F004020092009A61
:1009380001941A6B42F080021A631A6B02F080026B
:100948000192019A02941A6B42F001021A631A6B1F
:1009580002F001020292029A03941A6B42F0020218
:100968001A631A6B02F002020392039A04941A6B38
:1009780042F008021A631B6B03F008030493049BFC
:10098800DFF8888001224FF40051404601F054FC02
:100998001B4F22460221384601F04EFC194E012217
:1009A8004FF48051304601F047FC4FF40053059353
:1009B800012506950794089405A9404601F046FBD1
:1009C8000223059306950794089405A9384601F073
:1009D8003DFB4FF48053059306950794089405A9A9
:1009E800304601F033FB042305930694079505A9C7
:1009F800054801F02BFB0AB0BDE8F0810038024041
:100A08000000024000040240000C024000080240BE
:100A180072B6FEE700B595B03022002108A807F0AD
:100A2800CFFE002303930493059306930793019342
:100A3800204A116C41F080511164126C02F080520E
:100A48000192019A02931C4B1A6842F480421A6080
:100A58001B6803F480430293029B012308934FF41D
:100A68008033099302230E934FF480020F920422DD
:100A78001092A822119212930723139308A802F048
:100A88004BFA98B90F230393022304930023059389
:100A98004FF4A05306934FF480530793052103A8FE
:100AA80002F0A4FC20B915B05DF804FBFFF7B0FF15
:100AB800FFF7AEFF003802400070004008B500F0B4
:100AC800BFFBFFF7A7FFFFF71FFFFFF7D9FE06F0F1
:100AD800B7FB00F035F800F0C5FA00F0F7F9FFF7BA
:100AE8001FFDFFF773FD00F007F800F0B9F9FFF7F5
:100AF800C1FD05F0FDFFFEE708B50F480F4B036089
:100B08004FF482734360002383604FF40062C26035
:100B18000361012242614FF4007282611022C261B6
:100B28000362436283620A23C36202F0F3FD00B9E1
:100B380008BDFFF76DFFFBE72804002000300140E7
:100B480008B50F480F4B03604FF4827343600023CE
:100B580083604FF40062C2600361012242614FF476
:100B6800007282611822C2610362436283620A23AF
:100B7800C36202F0CFFD00B908BDFFF749FFFBE7EC
:100B8800D0030020003C004030B58BB00446002361
:100B9800059306930793089309930368664A93425B
:100BA80004D0664A934262D00BB030BD002501954F
:100BB800634B5A6C42F480525A645A6C02F4805265
:100BC8000192019A02951A6B42F002021A631B6B9A
:100BD80003F002030293029B382305930223069332
:100BE800032308930523099305A9564801F02EFA13
:100BF8005548564B03604FF0C06343608560C5603D
:100C08004FF4806303614FF4006343614FF4005372
:100C18008361C5610562456201F07CF808BB4A4BF7
:100C2800E3649C634A484B4B03604FF0C0634360E6
:100C3800402383600023C3604FF4806202614FF455
:100C4800006242614FF4005282614FF48072C261C7
:100C58000362436201F05EF830B93D4BA3649C63C4
:100C6800A2E7FFF7D5FEDAE7FFF7D2FEF5E70025A2
:100C78000395334B1A6C42F400421A641A6C02F45E
:100C880000420392039A04951A6B42F004021A6315
:100C98001B6B03F004030493049B4FF4E053059388
:100CA80002230693032308930623099305A92A48D8
:100CB80001F0CCF929482A4B036045608560C5607E
:100CC8004FF4806303614FF4006343614FF40053B2
:100CD8008361C5610562456201F01CF828BB1F4BA2
:100CE800E3649C631F48204B036000234360402259
:100CF8008260C3604FF4806202614FF40062426117
:100D08004FF400528261C3610362436201F002F84A
:100D180070B9144BA3649C6300221146332000F081
:100D280047FF332000F054FF3EE7FFF771FED6E798
:100D3800FFF76EFEEDE700BF00300140003C0040C9
:100D48000038024000040240700300204064024062
:100D5800100300205864024000080240B00200203E
:100D680010600240500200208860024082B00021DA
:100D780000910B4B5A6C42F480425A645A6C02F44C
:100D880080420092009A01911A6C42F080521A64D3
:100D98001B6C03F080530193019B02B0704700BFA6
:100DA80000380240FEE7FEE7FEE7FEE7FEE7704791
:100DB8007047704708B500F05DFA08BD08B50248ED
:100DC80001F056F808BD00BFB002002008B502487F
:100DD80001F04EF808BD00BF5002002008B50248D7
:100DE80003F012FA08BD00BF1005002008B502483C
:100DF80003F00AFA08BD00BF8004002008B50248C5
:100E080003F05EF808BD00BFD003002008B5024813
:100E180001F02EF808BD00BF1801002008B50248EF
:100E280001F026F808BD00BF7003002008B502488D
:100E380001F01EF808BD00BF1003002008B50248E5
:100E480001F05CFD08BD00BFBC0D0020034AD2F8CC
:100E5800883043F47003C2F88830704700ED00E032
:100E680000B58DB02422002103A807F0A9FC0023B7
:100E7800019302931348144A0260436083604FF65B
:100E8800FF72C26003618361032303930122059209
:100E98000423079309920B9303A903F02FFB50B97E
:100EA80000230193029301A9064803F089FE28B99B
:100EB8000DB05DF804FBFFF7ABFDF1E7FFF7A8FD08
:100EC800F6E700BFC80400200008004008B50A483B
:100ED8000A4B0360292343600023836040F2E73212
:100EE800C26003618023836103F0B0FA00B908BDD2
:100EF800FFF78EFDFBE700BF8004002000200040C4
:100F080000B583B00368184A934205D0174A934244
:100F180016D003B05DF804FB00210091144B5A6C05
:100F280042F001025A645B6C03F001030093009BDA
:100F38000A46192000F03CFE192000F049FEE8E7B7
:100F4800002101910A4B1A6C42F480721A641B6CDE
:100F580003F480730193019B0A462D2000F028FEBC
:100F68002D2000F035FED4E70000014000200040AD
:100F78000038024000B589B0002303930493059319
:100F8800069307930268134B9A4202D009B05DF8A2
:100F980004FB0021019103F50C331A6C42F00402A2
:100FA8001A641A6C02F004020192019A02911A6BF7
:100FB80042F002021A631B6B03F002030293029BC6
:100FC800C023039302230493079303A9024801F063
:100FD8003DF8DBE7000800400004024070B588B027
:100FE80000230393049305930693079302681A4B0F
:100FF8009A4201D008B070BD0025019503F59C33D5
:101008001A6B42F002021A631A6B02F00202019292
:10101800019A02951A6B42F001021A631B6B03F0E6
:1010280001030293029B4FF4604303930224049448
:1010380006940126079603A9084801F007F84FF41B
:10104800E0630393049405950694079603A904485E
:1010580000F0FCFFCEE700BF0000014000040240A2
:101068000000024030B597B00024129413941494F1
:1010780015941094119409940A940B940C940D945B
:101088000E940F9420252A46214601A807F098FBC4
:101098004148424B03604460856042F2D003C3601C
:1010A800046101234361846103F0D0F9002857D11A
:1010B8004FF48053129312A9374803F02AFB0028F3
:1010C80051D1354803F0EEF900284FD17023109321
:1010D8000023119310A9304803F072FD002848D16D
:1010E8007023099300220A920B920C920D920E9291
:1010F8000F9209A9284803F091FA00283CD104224C
:1011080009A9254803F08AFA002838D1082209A934
:10111800214803F083FA002834D16023099301237E
:101128000A930C2209A91C4803F078FA68BB4FF40B
:10113800006301934FF480630293002303930F220B
:10114800049205934FF400520692089301A912489D
:1011580003F07CFDE0B91048FFF740FF17B030BD41
:10116800FFF756FCA4E7FFF753FCAAE7FFF750FC8C
:10117800ACE7FFF74DFCB3E7FFF74AFCBFE7FFF723
:1011880047FCC3E7FFF744FCC7E7FFF741FCCEE79E
:10119800FFF73EFCDFE700BF10050020000001401C
:1011A800DFF834D00D480E490E4A002302E0D45827
:1011B800C4500433C4188C42F9D30B4A0B4C002397
:1011C80001E013600432A242FBD3FFF73FFE07F0B1
:1011D80049FBFFF773FC7047000002200000002065
:1011E800FC00002034930008FC000020601400205C
:1011F800FEE7000010B504460E4B1A784FF47A73D8
:10120800B3FBF2F30C4A1068B0FBF3F000F0EEFC0D
:1012180068B90F2C01D901200AE0002221464FF0BD
:10122800FF3000F0C5FC054B1C60002000E00120E9
:1012380010BD00BF040000200000002008000020AE
:1012480008B50B4B1A6842F400721A601A6842F427
:1012580080621A601A6842F480721A60032000F0F3
:1012680095FC0F20FFF7C6FFFFF780FD002008BDA3
:10127800003C0240034A1168034B1B780B4413607F
:10128800704700BF5805002004000020014B186873
:10129800704700BF5805002038B50446FFF7F6FF31
:1012A8000546B4F1FF3F02D0044B1B781C44FFF7FE
:1012B800EDFF401BA042FAD338BD00BF0400002058
:1012C8004A4B5A6822F440325A605A6841680A43C5
:1012D8005A600268536823F4807353600268536845
:1012E800016943EA012353600268536823F040739D
:1012F80053600268536881680B43536002689368BF
:1013080023F40063936002689368C1680B43936099
:10131800826A374B9A4257D00268936823F0706309
:10132800936002689368816A0B43936002689368CC
:1013380023F04053936002689368C16A0B4393603B
:101348000268936823F00203936002689368017E41
:1013580043EA4103936090F82030002B3FD00268A5
:10136800536843F4006353600268536823F460438E
:10137800536001684B68426A013A43EA42334B6062
:101388000268D36A23F47003D3620168CB6AC26926
:10139800013A43EA0253CB620268936823F400736C
:1013A80093600268936890F8301043EA4123936091
:1013B8000268936823F480639360026893684169C4
:1013C80043EA8123936070470268936823F070634F
:1013D80093600268936823F040539360B0E7026813
:1013E800536823F400635360CAE700BF0023014039
:1013F8000100000F38B310B50446036C43B1236CE9
:1014080013F0100F0BD00120002384F83C3010BDDE
:10141800FFF784F90023636484F83C30EFE7236C1A
:1014280023F4885323F0020343F002032364204685
:10143800FFF746FF00206064236C23F0030343F0AA
:1014480001032364E0E701207047000010B582B073
:1014580013460022019290F83C20012A00F0AE8049
:101468000446012280F83C200268906810F0010FC1
:1014780013D1906840F001009060534A1068534AB5
:10148800A2FB0020800C00EB4000019002E00198D4
:101498000138019001980028F9D12268906810F469
:1014A800807F03D0906820F48070906022689068F4
:1014B80010F0010F77D0206C20F4E06020F00100DC
:1014C80040F480702064526812F4806F05D0226C5A
:1014D80022F4405242F480522264226C12F4805F5B
:1014E80036D0626C22F006026264002284F83C2046
:1014F800A26B3748D063A26B36481064A26B36489B
:10150800D06422686FF0220010602068426842F0C0
:10151800806242602068826842F48072826020683B
:101528000A4600F14C01A06B00F05AFC2B4B5B689B
:1015380013F01F0F27D12368294A934211D002F5CF
:101548008072934207D0274A934214D0002033E098
:1015580000226264C9E702F50072526812F01F0F98
:10156800F1D19A6812F0405F2AD19A6842F080421D
:101578009A60002020E002F58072526812F0100F85
:10158800EFD0002018E02368154A934201D00020CC
:1015980012E09A6812F0405F14D19A6842F08042D3
:1015A8009A60002008E0236C43F010032364636C06
:1015B80043F001036364002002B010BD0220FBE782
:1015C8000020F9E70020F7E70000002083DE1B4336
:1015D80017160008F5150008011600080023014039
:1015E80000200140002201407047704708B5806B19
:1015F800FFF7FBFF08BD704708B5806B4023036405
:10160800436C43F004034364FFF7F5FF08BD08B5D6
:101618000346806B026C12F0500F25D1036C43F423
:101628000073036403689A6812F0405F19D1027E60
:10163800BAB9DA6A12F4700F03D09A6812F4806F9C
:101648000FD15A6822F020025A60036C23F4807389
:101658000364036C13F4805F03D1036C43F001034C
:101668000364FFF7C1FF08BD026C12F0100F04D12C
:10167800826BD26C18469047F5E7FFF7BCFFF2E79C
:1016880030B482B00022019290F83C20012A00F088
:10169800B6800346012280F83C200A68092A40D90E
:1016A8000468E06892B202EB42021E3A4FF0070C5F
:1016B8000CFA02F220EA0202E2601C68E0680A887A
:1016C80002EB42021E3A8D6805FA02F20243E2601A
:1016D8004A68062A3CD81C68606B02EB8202053A0D
:1016E8004FF01F0C0CFA02F220EA020262631C6837
:1016F800606B4A6802EB8202053AB1F800C00CFA46
:1017080002F20243626318683E4A904250D0186859
:101718003C4A904255D0002083F83C0002B030BCCF
:1017280070470468206992B202EB42024FF0070C3E
:101738000CFA02F220EA020222611C6820690A8877
:1017480002EB42028D6805FA02F202432261BFE70A
:101758000C2A16D81D68286B02EB8202233A1F2434
:1017680004FA02F220EA02022A631D68286B4A681A
:1017780002EB8202233A0C8804FA02F202432A633B
:10178800C1E71D68E86A02EB8202413A1F2404FAA5
:1017980002F220EA0202EA621D68E86A4A6802EB7D
:1017A8008202413A0C8804FA02F20243EA62AAE78A
:1017B8000A68122AABD11448426842F48002426097
:1017C800A5E70A68103A012AA5D80F48426842F4EA
:1017D800000242600A68102A9DD10C4A12680C491E
:1017E800A1FB0212920C02EB82025200019202E06B
:1017F800019A013A0192019A002AF9D18BE7022055
:101808008CE700BF002001400023014000000020B9
:1018180083DE1B4382B00023019390F83C30012BF8
:1018280067D0012380F83C3003689A6812F0010FF2
:1018380013D19A6842F001029A60334B1B68334A0D
:10184800A2FB03239B0C03EB4303019302E0019BE0
:10185800013B0193019B002BF9D10268936813F0B7
:10186800010F3BD0036C23F4405323F0010343F4EE
:1018780080530364036C13F4807F01D10023436415
:10188800002380F83C306FF004031360204B5B6842
:1018980013F01F0F0ED102689168536803F4806338
:1018A80011F4401F27D143BB936843F4800393602E
:1018B80000201CE003689A6802F44012596801F499
:1018C80080611448834201D0002010E0BAB9C1B940
:1018D8009A6842F480029A60002008E0036C43F0A2
:1018E80010030364436C43F001034364002002B017
:1018F80070470220FBE70020F9E70020F7E7002007
:10190800F5E70020F3E700BF0000002083DE1B435B
:10191800002301400020014090F83C20012A00F0FB
:10192800F98030B40346012280F83C200A68092A6D
:101938007ED90568E86892B202EB42021E3A072493
:1019480004FA02F220EA0202EA601D68E8688C687C
:101958000A8802EB42021E3A94402043E860186865
:10196800826B22F4401282631C68A26B08690138FA
:1019780042EA0052A2631C68A06B4A680D69521BB8
:10198800D2B20332D2B202EB82024FF01F0C0CFA31
:1019980002F220EA0202A2631C68A06B4A680D6981
:1019A800521BD2B20332D2B202EB8202B1F800C0AB
:1019B8000CFA02F20243A2638869574A90424CD05B
:1019C8001868826822F470228260186882688C69BC
:1019D800224382601868826822F440128260186884
:1019E8008268CC69224382604A7D002A40D0186808
:1019F800426842F4806242600A7D002A3ED018683C
:101A0800426842F4805242604A68022A55D0032A4A
:101A180060D0012A38D01868026A22F47F6222F066
:101A28000F0202621868026ACC682243026237E039
:101A38000568286992B202EB4202072404FA02F20E
:101A480020EA02022A611D6828698C680A8802EB6C
:101A5800420294402043286181E71868826822F492
:101A6800702282601868826822F440128260BBE7A4
:101A78001868426822F480624260BDE718684268CC
:101A880022F480524260BFE71868426922F47F62FC
:101A980022F00F02426118684269CC682243426111
:101AA80018681E4A904222D018681C4A904227D0D3
:101AB800002083F83C0030BC70471868826922F423
:101AC8007F6222F00F02826118688269CC68224323
:101AD8008261E5E71868C26922F47F6222F00F028A
:101AE800C2611868C269CC682243C261D8E70A6833
:101AF800122AD9D10A48426842F480024260D3E7E8
:101B08000A68103A012AD3D805494A6842F4000203
:101B18004A60CDE70220704701000F000020014015
:101B280000230140002808DB0901C9B200F1604028
:101B380000F5614080F80013704700F00F000901BC
:101B4800C9B2014B1954704714ED00E000B500F01C
:101B58000700C0F1070CBCF1040F28BF4FF0040CBC
:101B6800031D062B0FD9C31E4FF0FF3E0EFA0CF0D3
:101B780021EA000199400EFA03FE22EA0E0241EA28
:101B880002005DF804FB0023EEE70000074AD36873
:101B980023F4E0631B041B0C000200F4E060034321
:101BA80043F0BF6343F40033D360704700ED00E0B7
:101BB80010B50446054BD868C0F30220FFF7C6FFEE
:101BC80001462046FFF7AEFF10BD00BF00ED00E064
:101BD800002807DB00F01F02400901239340024A56
:101BE80042F82030704700BF00E100E00138B0F152
:101BF800807F0BD24FF0E0235861054AF02182F82C
:101C080023100020986107221A617047012070474D
:101C180000ED00E030B405682C6824F480242C60C2
:101C2800046863608368402B05D003689960036883
:101C3800DA6030BC704703689A600368D960F8E7D7
:101C480010B40368D9B210390C4AA2FB0142120938
:101C58000B4CA25CC2655F2909D923F47F7323F07A
:101C6800030304338365806D5DF8044B704723F4E8
:101C78007F7323F003038365F5E700BFABAAAAAA25
:101C8800B4890008836A826992B9012B0AD0022BB1
:101C980002D00BB100207047C36A13F0807F28D1AF
:101CA80000207047C36AB3F1C07F24D0002070477A
:101CB800B2F5005F09D0022B25D9032B25D1C36AC1
:101CC80013F0807F23D100207047032B03D8DFE86F
:101CD80003F01404140A00207047C36A13F0807FCD
:101CE8000DD100207047C36AB3F1C07F09D000202E
:101CF800704701207047012070470120704701207C
:101D0800704701207047012070470020704701206C
:101D18007047000070B50446FFF7B8FA002C5BD096
:101D28000546022384F83530002384F834302268CD
:101D3800136823F00103136023681A6812F0010F77
:101D48000AD0FFF7A3FA431B052BF5D920236365B7
:101D5800032084F8350070BD1A6820491140626874
:101D6800A0680243E06802432069024360690243B5
:101D7800A0690243E0690243206A02430A43616A98
:101D880004291ED01A602668756925F00705636A5C
:101D98001D43042B07D1A36A1D43E36A1BB12046E8
:101DA800FFF770FF90B975612046FFF749FFE26DB4
:101DB8003F239340836000206065012384F8353019
:101DC800C9E7E16A206B01430A43DBE74023636507
:101DD800012084F83500BEE70120BCE73F8010F001
:101DE80038B50446856D90F8340001282BD00120C1
:101DF80084F8340094F83500C0B2012804D00023D8
:101E080084F83430022038BD022084F835000020E0
:101E180060652046FFF7FEFEE26D3F239340AB600E
:101E28002268136843F016031360236C23B12268F9
:101E3800136843F0080313602268136843F0010332
:101E480013600020DFE70220DDE790F83530DBB2D1
:101E5800022B03D08023436501207047052380F8B7
:101E680035300268136823F00103136000207047BF
:101E7800F0B583B0044600230193724B1D68724B82
:101E8800A3FB0535AD0A876D3E68C26D08239340F4
:101E9800334210D003681A6812F0040F0BD01A6886
:101EA80022F004021A60C26D08239340BB60436DA0
:101EB80043F001034365E26D01239340334209D0A7
:101EC8002268526912F0800F04D0BB60636D43F042
:101ED80002036365E26D04239340334209D022680C
:101EE800126812F0020F04D0BB60636D43F0040364
:101EF8006365E26D10239340334224D02268126850
:101F080012F0080F1FD0BB6023681A6812F4802FE4
:101F18000DD01B6813F4002F04D1236C9BB120460D
:101F2800984710E0A36C73B1204698470BE01A68F5
:101F380012F4807F03D11A6822F008021A60236C19
:101F48000BB120469847E26D20239340334255D089
:101F58002268126812F0100F50D0BB6094F8353028
:101F6800DBB2052B0ED023681A6812F4802F33D009
:101F78001B6813F4002F2AD1636C002B3ED0204637
:101F880098473BE02268136823F016031360226821
:101F9800536923F080035361236CA3B1226813684B
:101FA80023F008031360E26D3F239340BB600123D5
:101FB80084F83530002384F83430236D002B3FD06B
:101FC800204698473CE0A36C002BE7D1EBE7E36B96
:101FD800A3B12046984711E01A6812F4807F09D10E
:101FE8001A6822F010021A60012384F835300023A1
:101FF80084F83430E36B0BB120469847636DFBB12E
:10200800636D13F0010F17D0052384F8353022686B
:10201800136823F001031360019B01330193AB4262
:1020280004D823681B6813F0010FF5D1012384F845
:102038003530002384F83430E36C0BB120469847E0
:1020480003B0F0BD00000020B5814E1B00230F2B0C
:1020580000F2E98070B582B065E085684FEA430E0A
:10206800032404FA0EF425EA0405CC6804FA0EF4F5
:102078002C438460446824EA02044A68C2F30012CC
:102088009A40224342605CE0DC08083450F824207F
:1020980003F00705AD004FF00F0E0EFA05FE22EA19
:1020A8000E0E0A69AA4042EA0E0240F824205CE0BB
:1020B800072200E0002202FA0EF22A4302345A4DA7
:1020C80045F82420594A94686FEA0C0224EA0C0562
:1020D8004E6816F4801F01D04CEA0405534CA560E5
:1020E800E46802EA04054E6816F4001F01D04CEAC1
:1020F80004054E4CE560646802EA04054E6816F46F
:10210800003F01D04CEA0405484C65602468224031
:102118004D6815F4803F01D04CEA0402434C22601C
:1021280001330F2B7DD801229A400C6804EA020C77
:1021380032EA0404F4D14C6804F00304013C012C95
:102148008BD94A6802F00302032A09D0C4685D00EB
:102158000322AA4024EA02048A68AA402243C260F1
:102168004A6802F00302022A8ED004684FEA430E3E
:10217800032202FA0EF224EA02044A6802F0030279
:1021880002FA0EF2224302604A6812F4403FC7D0B6
:1021980000220192264A546C44F480445464526CE0
:1021A80002F480420192019A9C08A51C1E4A52F82A
:1021B800255003F0030E4FEA8E0E0F2202FA0EF29C
:1021C80025EA02051B4A90423FF474AF02F580628B
:1021D80090421AD002F58062904218D002F58062CF
:1021E800904216D002F58062904214D002F58062C7
:1021F800904212D002F58062904210D002F58062BF
:1022080090423FF455AF082255E7012253E70222D6
:1022180051E703224FE704224DE705224BE7062248
:1022280049E702B070BD704700380140003C0140EA
:1022380000380240000002400AB181617047090479
:10224800816170472DE9F04383B0D0F8008001EB3D
:10225800C10300EB8303DA6D5B6D9A4254D80746DD
:102268000C469B1A01EBC10200EB8202926C9A4267
:1022780000D31A4602F103094FEA990915E006F15D
:1022880003094FEA990904EBC40507EB8505E96CD6
:102298003B7C0093B3B2E2B2404603F0CCF8EB6C5F
:1022A8003344EB64EB6D3344EB6508EB441303F5FF
:1022B80010639B699BB24B4512D304EBC40307EB35
:1022C8008303DA6D5B6D9A420AD24BB19B1A04EB19
:1022D800C40207EB8202966C9E42D0D31E46CEE71C
:1022E80004EBC40307EB83077A6DFB6D9A420FD8A2
:1022F80004F00F040122A240D8F8343823EA02037C
:10230800C8F83438002000E0012003B0BDE8F083AD
:102318000020FAE770B58AB0002800F090800546E2
:10232800046890F8BD343BB3032385F8BD34E36BF0
:1023380013F4807F01D100232B61286802F098FDF7
:102348002C4654F8106BEC460FCCACE80F000FCCC1
:10235800ACE80F0094E803008CE803002B1D0ECBBB
:10236800304602F0C7FC044658B1022385F8BD3454
:10237800012420460AB070BD80F8BC3405F062F82C
:10238800D2E70021286803F064FA234616E003EB3D
:10239800C30205EB8202012182F83D1082F83C302D
:1023A800A2F84430002182F840109164D16403EB14
:1023B800C30205EB820251650133DBB269688B42C7
:1023C800E5D316E004EBC40305EB8303002283F88E
:1023D8007D2283F87C4283F88022C3F88822C3F8E0
:1023E8008C2204EBC40305EB8303C3F89422013465
:1023F800E4B2A142E6D82C4654F8106BEC460FCC58
:10240800ACE80F000FCCACE80F0094E803008CE8B0
:1024180003002B1D0ECB304602F086FD044620B18A
:10242800022385F8BD340124A3E7002385F838305A
:10243800012385F8BD34286803F0CAF999E7012417
:1024480097E7026890F8BC34012B19D010B5044600
:10245800012380F8BC34836A012B09D0206802F07C
:1024680001FD206803F0A6F9002084F8BC0410BD23
:102478008369012BF2D0936B43F480339363EDE7C8
:102488000220704770B504460D460068066C00EBE4
:10249800411303F530639A682169012911D038493D
:1024A8008E4256D03DB905EBC50304EB8303D3F840
:1024B8009432002B5ED0E9B2204605F00DF80020DA
:1024C80070BD12F0080F09D02E498E42F7D912F4C8
:1024D800004FF4D04FF400429A60F0E712F0200F5A
:1024E80002D020229A60EAE712F0280FE7D12549A6
:1024F8008E4206D912F4004F03D04FF400429A607E
:10250800DDE705EBC50204EB8202D2F898121B69DD
:10251800C3F31203CB1AC2F89C327DB905EBC5028E
:1025280004EB8202D2F894226AB105EBC50204EBEF
:102538008202D2F88C121944C2F88C12E9B22046F1
:1025480004F0CAFFBBE704F2C442012103F0C2F958
:10255800F4E712F4004F03D04FF400429A60AEE75C
:1025680012F0200F01D020229A60E9B2204604F030
:10257800B3FFA4E704F2C442002103F0ABF99AE7E1
:102588000A31544F0A30544F38B5044603681D6C5D
:1025980003EB4113D3F8081B0E4A954207D903F5FC
:1025A800306311F4004F02D04FF400429A60204685
:1025B80004F08AFF074B9D4202D92369012B01D001
:1025C800002038BD04F2C4420121206803F082F9DA
:1025D800F6E700BF0A30544F90F8BC34012B0DD0F9
:1025E80010B50446012380F8BC3480F83810006820
:1025F80003F0D0F8002084F8BC0410BD0220704716
:1026080038B505468C4611F0800F29D101F00F0E20
:102618000EEBCE04A40004F51E740444211D0EEB39
:10262800CE0E00EB8E0E00208EF87D020CF00F0C03
:1026380081F800C0CA600B714A780AB1A1F808C0D5
:10264800022B1DD095F8BC34012B1CD0012385F832
:10265800BC34286802F041FD002085F8BC0438BD70
:1026680001F00F0000EBC001890038312944043122
:1026780000EBC00005EB8000012480F83D40D5E761
:1026880000234B71DEE70220E9E710B504460A464D
:1026980011F0800F20D101F00F0000EBC0039B0068
:1026A80003F51E732344191D00EBC00004EB8000E2
:1026B800002380F87D3202F00F020A7094F8BC34CF
:1026C800012B19D0012384F8BC34206802F052FD94
:1026D800002084F8BC0410BD01F00F0000EBC0031B
:1026E8009B0038332344191D00EBC00004EB800025
:1026F800012380F83D30DEE70220ECE710B501F059
:102708000F0404EBC401890001F51E710144043172
:1027180004EBC40C00EB8C0CCCF88C22CCF8943273
:102728000023CCF89C328CF87D328CF87C4203690B
:10273800012B06D064B9DAB2006802F08BFD0020E4
:1027480010BD04EBC40C00EB8C0CCCF89022F1E724
:10275800DAB2006802F086FEF1E701F00F0101EB42
:10276800C10100EB8100D0F89C02704710B501F060
:102778000F0404EBC401890038310144043104EB2F
:10278800C40C00EB8C0CCCF84C20CCF85430002353
:10279800CCF85C3001238CF83D308CF83C40036960
:1027A800012B06D064B9DAB2006802F053FD0020AC
:1027B80010BD04EBC40C00EB8C0CCCF85020F1E7F6
:1027C800DAB2006802F04EFEF1E738B501F00F0505
:1027D8004268954239D804460B4611F0800F1FD144
:1027E80001EBC101890001F51E710144043103EBBD
:1027F800C30300EB8303002283F87D2201238B703F
:102808000D7094F8BC34012B21D0012384F8BC341A
:10281800206802F064FF8DB1002084F8BC0438BD44
:1028280005EBC501890038310144043105EBC503C6
:1028380000EB8303012283F83D20DFE704F2C44262
:10284800217C206803F046F8E6E70120E7E702204C
:10285800E5E701F00F034268934231D810B504460A
:1028680011F0800F1ED103EBC301890001F51E7121
:102878000144043103EBC30200EB8202002082F81A
:102888007D0200228A700B7094F8BC34012B19D099
:10289800012384F8BC34206802F04EFF002084F83D
:1028A800BC0410BD03EBC301890038310144043175
:1028B80003EBC30200EB8202012082F83D00E0E74F
:1028C800012070470220ECE708B511F0800F0CD109
:1028D80001F00F0101EBC101890001F51E710144EE
:1028E8000431006802F048FD08BD01F00F0101EB5A
:1028F800C1018900383101440431F2E72DE9F04F74
:1029080083B004460568284602F09FFF10B103B063
:10291800BDE8F08F0646206802F068FF0028F6D070
:1029280005F50067BB68C3F30D23C4F8FC342068C1
:1029380002F05CFF10F0020F04D02268536903F024
:1029480002035361206802F051FF10F0100F13D0FA
:102958002268936923F010039361D5F8208008F06A
:102968000F09C8F34343022B4BD0062B6FD02268C4
:10297800936943F010039361206802F037FF10F465
:10298800002F76D1206802F031FF10F4802F40F03C
:10299800E080206802F02AFF0028C0F263812068E6
:1029A80002F024FF10F4006F09D0BB6813F0010F88
:1029B80040F070812268536903F400635361206812
:1029C80002F014FF10F4805F40F06881206802F084
:1029D8000DFF10F4005F40F0B581206802F006FF9B
:1029E80010F0080F40F0C681206802F0FFFE10F0DA
:1029F800800F00F0D981AB6923F08003AB61012619
:102A0800C2E147F6F07318EA030FB0D04FEA181A7C
:102A18004FEAC903019309EBC90B04EB8B0BC8F30D
:102A28000A12DBF88C12284602F036FEDBF88C32EC
:102A3800CAF30A0A5344CBF88C32DBF89C32019A69
:102A48004A4404EB82025344C2F89C328FE70822BE
:102A580004F2C441284602F01FFE09EBC90304EB47
:102A68008303D3F89C22C8F30A184244C3F89C2273
:102A78007DE7206802F0BEFE8046B14635E005EBF2
:102A880049130122C3F8082B49462046FFF7FAFCF0
:102A98003CE005EB49130822C3F8082B49462046B9
:102AA800FFF772FD35E009EBC90304EB830393F8E4
:102AB8007F32012B41D005EB49130222C3F8082BC2
:102AC8001AF0200F04D005EB49132022C3F8082B75
:102AD8001AF4005F05D005EB49134FF40052C3F810
:102AE800082B09F101094FEA5808B8F1000F3FF423
:102AF80049AF18F0010FF4D05FFA89FB59462068F6
:102B080002F088FE824610F0010FB8D11AF0080FC3
:102B1800BFD11AF0100F04D005EB49131022C3F8E7
:102B2800082B1AF0020FCBD06B6913F0800FBAD0C4
:102B38007B6843F480637B60B5E709EBC90304EB6A
:102B48008303002283F87F225946204604F016FDAD
:102B5800B1E7206802F056FE8046B14625E05946A6
:102B6800204604F0C5FC1AF0080F04D005EB491301
:102B78000822C3F808291AF0100F04D005EB4913EE
:102B88001022C3F808291AF0400F04D005EB4913A6
:102B98004022C3F808291AF0020F40D11AF0800F1A
:102BA8005BD109F101094FEA5808B8F1000F3FF469
:102BB800F0AE18F0010FF4D05FFA89FB594620688F
:102BC80002F031FE824610F0010FCCD009F00F025E
:102BD800012101FA02F27B6B23EA02037B6305EB16
:102BE8004913C3F8081923698B42B8D109EBC90303
:102BF80004EB8303DA6C996C0A44DA64B9F1000FC8
:102C0800ADD109EBC90304EB83035B6D002BA6D19F
:102C180004F2C4420121206802F05CFE9FE74946A5
:102C2800284602F02BF909EBC90304EB830393F858
:102C38003F30012B05D005EB49130222C3F80829C0
:102C4800ACE709EBC90304EB8303002283F83F20B8
:102C58005946204604F098FCEDE749462046FFF720
:102C6800F1FA9EE77B6823F001037B6094F8F43463
:102C7800012B08D0204604F07BFC2268536903F03E
:102C8800004353618BE6002184F8F414204600F0D9
:102C980041F9F2E7204604F053FC8BE67B6823F009
:102CA80001037B601021206802F0E8F81AE005EBC8
:102CB80046134FF67F31C3F80819D3F8002922F4D8
:102CC8000012C3F80029C3F8081BD3F8002B22F41C
:102CD8000012C3F8002BD3F8002B42F00062C3F8AF
:102CE800002B01366368B342E1D8FB6943F0011356
:102CF800FB61236BDBB1D7F8843043F00B03C7F8D3
:102D080084307B6C43F00B037B64D5F8003823F4E4
:102D1800FE63C5F8003804F2C442217C206802F042
:102D2800D9FD2268536903F4805353614EE67B69E9
:102D380043F4005343F02B037B613B6943F00B03DF
:102D48003B61E2E7206802F0B5FD206802F0B4F9C3
:102D5800E060266800F0FAFB0146227B304602F06C
:102D68000FF8204604F0D5FB2268536903F400539A
:102D7800536132E6204604F0C6FB2268536903F02B
:102D88000803536130E601366368B3420CD906EB99
:102D9800C60304EB830393F87F32012BF3D1F1B21E
:102DA8002046FFF791FDEEE7206802F01FFD10F4C2
:102DB800801F27D1206802F019FD10F4001F5BD096
:102DC800012328E001366368B3421DD905EB461399
:102DD800D3F8002906EBC60304EB830393F84030CD
:102DE800012BEFD1002AEDDA06EBC60304EB8303CF
:102DF800012283F83F2066F07F01C9B22046FFF721
:102E080063FDDFE70126DEE72268536903F48013D8
:102E18005361CFE7013362689A4228D905EB431220
:102E2800D2F8001B03EBC30204EB820292F8802263
:102E3800012AEFD10029EDDA01F48031D4F8FC241D
:102E480002F001029142E5D103EBC30204EB8202D6
:102E5800012182F87F12AA6942F08002AA616A6998
:102E680012F0800FD6D17B6843F400737B60226830
:102E7800536903F400135361206802F0B7FC10F0A3
:102E8800804F10D1206802F0B1FC10F0040F3FF41D
:102E98003EAD23685D6815F0040F0DD122685368B4
:102EA8002B43536033E5204604F074FB22685369D2
:102EB80003F080435361E5E7204604F071FBEDE73A
:102EC80010B40468606A31B940EA0240A062002088
:102ED8005DF8044B70478C46A36A00EB134000234F
:102EE80008E003F1400104EB8101496800EB11405F
:102EF8000133DBB20CF1FF318B42F2D340EA0240DE
:102F08000CF13F0104EB81046060E0E7036859625B
:102F18000020704770470000002800F0E08170B57D
:102F280082B00446036813F0010F3BD09F4B9B68A7
:102F380003F00C03042B2CD09C4B9B6803F00C0370
:102F4800082B21D06368B3F5803F4FD0B3F5A02F8D
:102F580052D0964B1A6822F480321A601A6822F40A
:102F680080221A606368002B50D0FEF78FF905465F
:102F78008E4B1B6813F4003F14D1FEF787F9401BF2
:102F88006428F5D90320B1E1884B5B6813F4800FFE
:102F9800D8D0864B1B6813F4003F03D06368002B1E
:102FA80000F09F81236813F0020F54D07F4B9B6879
:102FB80013F00C0F3ED07D4B9B6803F00C03082BDD
:102FC80033D0E368002B68D0794B01221A60FEF7F2
:102FD8005DF90546754B1B6813F0020F54D1FEF7D7
:102FE80055F9401B0228F5D903207FE16F4A136881
:102FF80043F480331360B5E76C4B1A6842F48022BF
:103008001A601A6842F480321A60ABE7FEF73EF99C
:103018000546664B1B6813F4003FC3D0FEF736F92C
:10302800401B6428F5D9032060E1604B5B6813F40A
:10303800800FC6D15D4B1B6813F0020F03D0E36805
:10304800012B40F05081594A136823F0F803216995
:1030580043EAC1031360236813F0080F42D0636981
:103068006BB3534B0122C3F8802EFEF70FF90546C8
:103078004E4B5B6F13F0020F34D1FEF707F9401B7C
:103088000228F5D9032031E1484A136823F0F803F0
:10309800216943EAC1031360DDE7454B00221A604A
:1030A800FEF7F4F80546414B1B6813F0020FD2D027
:1030B800FEF7ECF8401B0228F5D9032016E13C4B3B
:1030C8000022C3F8802EFEF7E1F80546374B5B6F08
:1030D80013F0020F06D0FEF7D9F8401B0228F5D9E5
:1030E800032003E1236813F0040F77D02F4B1B6CE8
:1030F80013F0805F33D1002301932C4B1A6C42F0FC
:1031080080521A641B6C03F080530193019B0125C4
:10311800284B1B6813F4807F23D0A368012B34D07D
:10312800052B38D0214B1A6F22F001021A671A6F4B
:1031380022F004021A67A368002B3DD0FEF7A6F818
:1031480006461A4B1B6F13F0020F46D1FEF79EF886
:10315800801B41F288339842F3D90320C6E000254A
:10316800D6E7144A136843F480731360FEF78EF8A9
:103178000646104B1B6813F4807FCED1FEF786F805
:10318800801B0228F5D90320B0E0084A136F43F0EA
:1031980001031367CFE7054B1A6F42F004021A6761
:1031A8001A6F42F001021A67C5E700BF00380240F3
:1031B8000000474200700040FEF768F80646524B90
:1031C8001B6F13F0020F08D0FEF760F8801B41F266
:1031D80088339842F3D9032088E0EDB9A369002B1E
:1031E80000F08380484A926802F00C02082A51D005
:1031F800022B17D0454B00221A66FEF747F8044603
:10320800414B1B6813F0007F42D0FEF73FF8001BCC
:103218000228F5D9032069E03B4A136C23F0805358
:103228001364DBE7394B00221A66FEF72FF80546D0
:10323800354B1B6813F0007F06D0FEF727F8401BBC
:103248000228F5D9032051E0E369226A1343626A30
:1032580043EA8213A26A5208013A43EA0243E26A45
:1032680043EA0263284A5360284B01221A66FEF794
:103278000DF80446244B1B6813F0007F06D1FEF7B7
:1032880005F8001B0228F5D903202FE000202DE0C7
:1032980000202BE0012B2BD01B4B5B6803F4800133
:1032A800E269914226D103F03F02216A8A4223D182
:1032B800616A47F6C0721A40B2EB811F1ED103F44F
:1032C8004031A26A5208013AB1EB024F18D103F01B
:1032D8007063E26AB3EB026F14D1002006E00120AC
:1032E8007047012002E0012000E0002002B070BD1C
:1032F8000120FBE70120F9E70120F7E70120F5E7C6
:103308000120F3E70120F1E70038024000004742BE
:1033180008B5334B9B6803F00C03042B5BD0082BD8
:103328005BD12F4B5A6802F03F025B6813F4800FA1
:103338002CD02B4B5868C0F388104FEA401CBCEBCC
:10334800000C6EEB0E0E4FEA8E1343EA9C634FEAB5
:103358008C11B1EB0C0163EB0E03DB0043EA5173F4
:10336800C90011EB000C43F10003590200234FEA96
:103378004C2041EADC51FCF703FF194B5B68C3F3AF
:10338800014301335B00B0FBF3F027E0144B5868AE
:10339800C0F388104FEA401CBCEB000C6EEB0E0E1D
:1033A8004FEA8E1343EA9C634FEA8C11B1EB0C0190
:1033B80063EB0E03DB0043EA5173C90011EB000C09
:1033C80043F10003990200234FEA8C2041EA9C5103
:1033D800FCF7D6FED1E7034800E0034808BD00BF6C
:1033E8000038024000127A000024F400002800F09F
:1033F8009B8070B50D4604464F4B1B6803F00703CE
:103408008B4208D2CBB24C4A1370136803F00703FF
:103418008B4240F08B80236813F0020F17D013F013
:10342800040F04D0454A936843F4E053936023683B
:1034380013F0080F04D0414A936843F46043936043
:103448003E4A936823F0F003A1680B439360236816
:1034580013F0010F32D06368012B21D09A1E012A84
:1034680025D9364A126812F0020F61D033498A68AA
:1034780022F0030213438B60FDF708FF06462F4B2B
:103488009B6803F00C036268B3EB820F16D0FDF75C
:10349800FDFE801B41F288339842F0D9032042E0B8
:1034A800264A126812F4003FE0D101203BE0234A8B
:1034B800126812F0007FD9D1012034E01E4B1B683E
:1034C80003F00703AB4207D9EAB21B4B1A701B681B
:1034D80003F00703AB422DD1236813F0040F06D085
:1034E800164A936823F4E053E1680B43936023681A
:1034F80013F0080F07D0114A936823F46043216939
:1035080043EAC1039360FFF703FF0C4B9B68C3F3C7
:1035180003130B4AD35CD8400A4B18600A4B18684F
:10352800FDF768FE002070BD012070470120FAE712
:103538000120F8E70120F6E7003C0240003802408D
:10354800A48900080000002008000020014B18682A
:10355800704700BF000000202DE9F04782B0054603
:10356800884617461E46FDF791FE0A9B1B1A03EB79
:103578000609FDF78BFE8246284B1B68C3F3CB3345
:1035880009FB03F301932B689C6838EA04040CBF19
:1035980001230023BB423DD0B6F1FF3FF3D0FDF736
:1035A80075FEA0EB0A00484507D2019A02B14A46C7
:1035B800019B013B01939146E5E72A68536823F094
:1035C800E00353606B68B3F5827F0BD0AB6AB3F549
:1035D800005F14D0012385F85130002385F850305E
:1035E800032018E0AB68B3F5004F02D0B3F5806F45
:1035F800ECD12A68136823F040031360E6E72A68D1
:10360800136823F4005313602A68136843F40053C3
:103618001360DFE7002002B0BDE8F087000000205B
:1036280010B584B00446164B1868164BA3FB00303F
:10363800400D4FF47A7303FB00F003906368B3F511
:10364800827F0BD0039BBBB1039B013B0393236891
:103658009B6813F0800FF5D100200EE000920B4616
:10366800002280212046FFF777FF30B1636D43F0D9
:1036780020036365032000E0002004B010BD00BFF4
:1036880000000020819F5E1610B582B004460B46EC
:103698004168B1F5827F14D06168B1F5827F2AD183
:1036A800A168B1F5806F19D00092002280212046D0
:1036B800FFF752FF30B3636D43F0200363650320C7
:1036C80020E08168B1F5004F02D0B1F5806FE3D1F9
:1036D8002068016821F040010160DDE700920022C6
:1036E80001212046FFF738FF60B1636D43F02003E6
:1036F8006365032006E00092002201212046FFF7BF
:103708002BFF08B902B010BD636D43F02003636559
:103718000320F7E700285AD010B50446436A33B9A6
:103728004368B3F5827F05D00023C36102E000231C
:10373800036143610023A36294F85130002B40D009
:10374800022384F851302268136823F04003136081
:10375800636803F48273A26802F404421343E268C4
:1037680002F400621343226902F002021343626901
:1037780002F001021343A26902F400721343E269E2
:1037880002F038021343226A02F080021343A26A4D
:1037980002F40052216813430B60638B03F00403A7
:1037A800626A02F01002216813434B602268D369F1
:1037B80023F40063D36100206065012384F851304D
:1037C80010BD84F850302046FDF7DEF9B8E7012037
:1037D80070472DE9F04383B01F460A9D90F850309A
:1037E800012B00F01081044688469146012380F899
:1037F8005030FDF74BFD064694F85130DBB2626855
:10380800012B0AD0B2F5827F40F0E380A268002A3B
:1038180040F0E980042B40F0E880B8F1000F00F098
:10382800E680B9F1000F00F0E480002F00F0E3809B
:1038380094F85130DBB2042B02D0052384F85130C0
:1038480000236365C4F83890E787A787C4F83080F9
:10385800E786A7862364636423681A6812F0400F1A
:1038680003D11A6842F040021A60E368B3F5006FAA
:1038780011D063680BB1012F0BD1226B236812782A
:103888001A73236B01332363E38E9BB2013B9BB214
:10389800E38601276BE063680BB1012F0BD1226B24
:1038A80023681288DA60236B02332363E38E9BB2AA
:1038B800013B9BB2E38601271CE023689A6812F05B
:1038C800010F0ED0E28F92B25AB1DA68A36B1A8058
:1038D800A36B0233A363E38F9BB2013B9BB2E387E5
:1038E8000127FDF7D3FC801BA84203D3B5F1FF3FA6
:1038F80040F08380E38E9BB21BB9E38F9BB2002B11
:1039080053D023689A6812F0020FD6D0E28E92B292
:10391800002AD2D0002FD0D0226B1288DA60236B15
:1039280002332363E38E9BB2013B9BB2E3860027FD
:10393800C3E723689A6812F0010F0ED0E28F92B2A3
:103948005AB1DA68A36B1A70A36B0133A363E38FD0
:103958009BB2013B9BB2E3870127FDF797FC831BD2
:10396800AB4202D3B5F1FF3F49D1002D49D0E38ED8
:103978009BB213B9E38F9BB2BBB123689A6812F06C
:10398800020FD6D0E28E92B2002AD2D0002FD0D029
:10399800226B12781A73236B01332363E38E9BB275
:1039A800013B9BB2E3860027C3E7324629462046FF
:1039B800FFF736FE48B9A36863B901932368DA684C
:1039C80001929B680193019B04E020236365012019
:1039D80000E00220012384F85130002384F850309D
:1039E80003B0BDE8F0830220F4E70220F2E70120EB
:1039F800F0E70120EEE70120ECE70320EAE70320E7
:103A0800E8E70320E6E70220EAE7000038B590F887
:103A18005030012B61D00446012380F8503090F8D3
:103A28005150EDB29D4252D1002951D0002A4FD0B9
:103A3800032380F851300023436501638286C286E0
:103A48008363436403648387C3878368B3F5004F44
:103A58002AD0A36C224A1A64A36C224ADA63A36CA4
:103A6800214ADA64A36C00221A652268E38E9BB2AD
:103A78000C32216BA06CFEF7B3F90146F8B9236844
:103A88001A6812F0400F03D11A6842F040021A6017
:103A98002268536843F0200353602268536843F058
:103AA800020353600D4613E00268136823F04003D5
:103AB80013600268136843F480431360C9E7636DB9
:103AC80043F010036365012384F8513000E00225B8
:103AD800002384F85030284638BD0225FBE700BF94
:103AE800493D00088F3D00086D3D000838B5044683
:103AF80090F85000012800F09480012084F85000CC
:103B080094F85100C0B26568012807D0B5F5827FE6
:103B180078D1A568002D7AD104287AD100297AD0E5
:103B2800002A7AD0002B7AD094F85100C0B2042829
:103B380002D0052084F85100002060652163A38627
:103B4800E386A263A387E3872064606494F8513016
:103B5800DBB2042B1CD0E36C334A1A64E36C334A9F
:103B6800DA63E36C324ADA64E36C00221A6521688E
:103B7800E38F9BB2A26B0C31E06CFEF731F970B1A8
:103B8800636D43F010036365012084F851003AE047
:103B9800E36C284A1A64E36C274ADA63E1E722688F
:103BA800536843F001035360A26C00231364A26CB2
:103BB800D363A26CD364A26C13652268E38E9BB2B4
:103BC8000C32216BA06CFEF70BF998B923681A68C0
:103BD80012F0400F03D11A6842F040021A602268BE
:103BE800536843F0200353602268536843F002038C
:103BF800536008E0636D43F010036365012084F8A7
:103C0800510000E00220002384F8503038BD022023
:103C1800F9E70220F7E70120F5E70120F3E70120A3
:103C2800F1E70220F2E700BF613D00086D3E0008A1
:103C38006D3D0008553D0008FF3D000838B50446B5
:103C480083681BB94068B0F5827F49D094F850006A
:103C5800012868D0012084F8500094F85150EDB242
:103C680085425AD1002959D0002A57D0042084F817
:103C7800510000206065A163A287E2872064606428
:103C8800A086E086B3F5004F34D0E36C274A1A6467
:103C9800E36C274ADA63E36C264ADA64E36C0022B1
:103CA8001A652168E38F9BB2A26B0C31E06CFEF7BA
:103CB80097F8014648BB23681A6812F0400F03D1F1
:103CC8001A6842F040021A602268536843F02003E1
:103CD80053602268536843F0010353600D461DE0AA
:103CE800042384F8513013460A462046FFF7FEFEA7
:103CF800054616E02268136823F040031360226823
:103D0800136823F480431360BFE7636D43F0100327
:103D18006365012384F8513000E00225002384F80C
:103D28005030284638BD0225FBE700BF553D000846
:103D3800FF3D00086D3D00087047704770477047A9
:103D480008B5806BFFF7FBFF08BD704708B5806BAF
:103D5800FFF7FBFF08BD704708B5806BFFF7FBFF57
:103D680008BD704708B5806B0268536823F00303E9
:103D78005360436D43F010034365012380F85130CD
:103D8800FFF7EFFF08BD30B583B00546846BFDF73C
:103D98007DFA2B681B6813F4807F23D102462168C3
:103DA8004B6823F020034B6021684B6823F0020323
:103DB8004B6064212046FFF733FC18B1636D43F074
:103DC80020036365A36833B901932368DA68019215
:103DD8009B680193019B0023E386012384F85130FB
:103DE800636D23B92046FFF7A7FF03B030BD204617
:103DF800FFF7B7FFF9E738B50546846BFDF746FAD4
:103E08002B681B6813F4807F1ED1024621684B681B
:103E180023F020034B60A3681BB96368B3F5827F66
:103E280016D021684B6823F001034B6064212046BB
:103E3800FFF72AFC08B1202363650023E3870123E9
:103E480084F85130636D4BB92046FFF776FF38BDD3
:103E580021684B6823F003034B60E7E72046FFF730
:103E680080FFF4E738B50546846BFDF70FFA2B6839
:103E78001B6813F4807F1BD1024621684B6823F02E
:103E880020034B6064212046FFF7CAFB18B1636D1D
:103E980043F0200363652268536823F003035360EB
:103EA8000023E386E387012384F85130636D1BB94F
:103EB8002046FFF743FF38BD2046FFF752FFFAE7D9
:103EC80010B584B0044602685168936803F0410055
:103ED800012867D013F0020F02D011F0800F68D1CB
:103EE80013F4B07F68D011F0200F65D013F0400FA5
:103EF8000FD094F85100C0B203285FD0606D40F035
:103F08000400606500200090D068009090680090E0
:103F1800009813F0200F0CD0606D40F00100606530
:103F28000020029090680290106820F04000106015
:103F3800029A13F4807F09D0636D43F00803636528
:103F48000023039323689B680393039B636D002BF3
:103F580032D02268536823F0E0035360012384F8C9
:103F6800513011F0030F31D02268536823F0030356
:103F78005360E36C4BB1174A1A65E06CFDF765FFB7
:103F880018B1636D43F040036365A36CA3B1114A94
:103F98001A65A06CFDF759FF70B1636D43F04003DB
:103FA800636509E011F0400F94D0236C20469847D0
:103FB80002E0636C2046984704B010BD00230193CB
:103FC800D368019393680193019BF5E72046FFF7B7
:103FD800C8FEF1E7E13F000808B5806B0023C387FE
:103FE800C386FFF7BEFE08BD30B4036A23F00103A1
:103FF8000362036A4268846924F0730C0C6844EA1B
:104008000C0423F0020C8B6843EA0C03114DA84200
:1040180003D005F58065A84205D123F00803CD68D3
:104028002B4323F004030B4DA84203D005F580650C
:10403800A84207D122F440724D6945EA020C8A6908
:1040480042EA0C02426084614A684263036230BCFF
:10405800704700BF0000014030B4036A23F4807346
:104068000362036A4268C46924F0730C0C6844EA6A
:104078000C0523F400738C6843EA0423114CA04216
:1040880003D004F58064A04206D123F40063CC6811
:1040980043EA042323F480630A4CA04203D004F5C6
:1040A8008064A04207D122F440524C6942EA0412CB
:1040B8008C6942EA04124260C5614A68C2630362BD
:1040C80030BC70470000014030B4036A23F48053C9
:1040D8000362036A4468C26922F4E6420D6842EA50
:1040E800052223F400538D6843EA0533094DA8429D
:1040F80003D005F58065A84204D124F480444D69B5
:1041080044EA85144460C2614A680264036230BCB0
:10411800704700BF0000014010B4036A046A24F02D
:1041280001040462846924F0F00C4CEA021223F0C2
:104138000A030B43826103625DF8044B704710B4B5
:10414800036A23F0100303628469036A24F4704C41
:104158004CEA023223F0A00343EA011382610362AE
:104168005DF8044B7047836823F070030B4343F0FA
:10417800070383607047000090F83D30DBB2012BE5
:1041880037D1022380F83D300268D36843F0010339
:10419800D3600368194A934220D0B3F1804F1DD0F1
:1041A800A2F57C42934219D002F58062934215D061
:1041B80002F58062934211D002F5784293420DD005
:1041C80002F57052934209D0A2F59432934205D079
:1041D8001A6842F001021A60002070479A6802F0DB
:1041E8000702062A07D01A6842F001021A60002066
:1041F8007047012070470020704700BF0000014051
:10420800704770477047704710B5044603681A69CD
:1042180012F0020F11D0DA6812F0020F0DD06FF011
:1042280002021A610123037703689B6913F0030FE5
:1042380070D0FFF7E7FF0023237723681A6912F08D
:10424800040F12D0DA6812F0040F0ED06FF00402D7
:104258001A610223237723689B6913F4407F5FD098
:104268002046FFF7CFFF0023237723681A6912F04F
:10427800080F12D0DA6812F0080F0ED06FF008029B
:104288001A61042323772368DB6913F0030F4ED0E8
:104298002046FFF7B7FF0023237723681A6912F037
:1042A800100F12D0DA6812F0100F0ED06FF0100253
:1042B8001A61082323772368DB6913F4407F3DD014
:1042C8002046FFF79FFF0023237723681A6912F01F
:1042D800010F03D0DA6812F0010F36D123681A698A
:1042E80012F0800F03D0DA6812F0800F34D12368FF
:1042F8001A6912F0400F03D0DA6812F0400F32D179
:1043080023681A6912F0200F03D0DA6812F0200F20
:1043180030D110BDFFF775FF204602F053FC8AE745
:104328002046FFF76EFF204602F04CFC9BE7204634
:10433800FFF767FF204602F045FCACE72046FFF791
:1043480060FF204602F03EFCBDE76FF001021A61F3
:10435800204602F029FCC1E76FF080021A6120466E
:1043680000F09EFCC3E76FF040021A612046FFF799
:104378004AFFC5E76FF020021A61204600F08FFC63
:10438800C7E700000368304A904212D0B0F1804F6E
:104398000FD0A2F57C4290420BD002F58062904289
:1043A80007D002F58062904203D002F5784290422D
:1043B80003D123F070034A681343234A90422AD05A
:1043C800B0F1804F27D0A2F57C42904223D002F56D
:1043D800806290421FD002F5806290421BD002F5A5
:1043E8007842904217D002F57052904213D002F5ED
:1043F800806290420FD002F5806290420BD0A2F505
:104408009832904207D002F58062904203D002F5BC
:104418008062904203D123F44073CA68134323F0A7
:1044280080034A69134303608B68C3620B68836225
:10443800054B984203D003F58063984201D10B697C
:1044480003630123436170470000014040B310B586
:10445800044690F83D30F3B1022384F83D302146FC
:1044680051F8040BFFF78EFF012384F8463084F8D7
:104478003E3084F83F3084F8403084F8413084F886
:10448800423084F8433084F8443084F8453084F866
:104498003D30002010BD80F83C30FCF731FDDBE7F3
:1044A8000120704740B310B5044690F83D30F3B191
:1044B800022384F83D30214651F8040BFFF762FFD0
:1044C800012384F8463084F83E3084F83F3084F87D
:1044D800403084F8413084F8423084F8433084F81E
:1044E800443084F8453084F83D30002010BD80F811
:1044F8003C30FFF785FEDBE701207047002853D0EA
:10450800F8B50D46044690F83D30002B47D00223FD
:1045180084F83D302268936823F4804323F007032E
:104528009360214651F8040BFFF72CFF21688B6834
:104538008A690E6A2868184322F4407222F003023E
:10454800AB68AF6943EA0723134323F47C4323F0A2
:10455800FC03EA68EF6942EA07221A432B6A1B0345
:104568002F6943EA0713134326F0AA066A686D69A0
:1045780042EA05123243886021688B6123681A6217
:10458800012384F8463084F83E3084F83F3084F8BC
:10459800423084F8433084F83D300020F8BD80F87C
:1045A8003C30FCF7E7FCB2E70120704730B4036AFF
:1045B80023F010030362036A4468826922F4E64226
:1045C8000D6842EA052223F020038D6843EA0513AB
:1045D800114DA84203D005F58065A84206D123F005
:1045E8008003CD6843EA051323F040030A4DA8422F
:1045F80003D005F58065A84207D124F440644D69CD
:1046080044EA85048D6944EA8504446082614A6805
:104618008263036230BC70470000014038B590F8EF
:104628003C30012B66D004460D46012380F83C300F
:104638000C2A5AD8DFE802F0075959591B59595919
:104648003059595944000068FFF7CEFC2268936935
:1046580043F0080393612268936923F0040393618C
:104668002268936929690B43936100203EE0006842
:10467800FFF79CFF2268936943F400639361226803
:10468800936923F48063936122689369296943EAF3
:1046980001239361002029E00068FFF7DDFC226810
:1046A800D36943F00803D3612268D36923F0040374
:1046B800D3612268D36929690B43D361002015E0CF
:1046C8000068FFF701FD2268D36943F40063D361F2
:1046D8002268D36923F48063D3612268D369296986
:1046E80043EA0123D361002000E00120002384F87D
:1046F8003C3038BD0220FCE710B4846824F47F4CB9
:1047080042EA03220A4342EA0C0282605DF8044B43
:10471800704790F83C30012B78D010B5044601233F
:1047280080F83C30022380F83D300268936823F417
:104738007F4323F0770393600B68602B4CD029D814
:10474800402B54D00CD9502B22D1CA684968006834
:10475800FFF7E2FC50212068FFF705FD002005E087
:10476800202B0DD009D9302B0AD00120012384F841
:104778003D30002384F83C3010BD0BB1102B05D11F
:1047880019462068FFF7EFFC0020EFE70120EDE76E
:104798000120EBE7B3F5805F34D0B3F5005F0CD1AF
:1047A800CB684A6889680068FFF7A6FF22689368A3
:1047B80043F4804393600020D8E7702B24D1CB6862
:1047C8004A6889680068FFF797FF2268936843F092
:1047D800770393600020C9E7CA6849680068FFF753
:1047E800AEFC60212068FFF7BEFC0020BEE7CA6867
:1047F80049680068FFF790FC40212068FFF7B3FC88
:104808000020B3E70020B1E70120AFE7022070479E
:1048180001F01F014FF0010C0CFA01FC036A23EAB6
:104828000C030362036A8A40134303627047000063
:1048380010B504460846002942D194F83E30DBB250
:10484800013B18BF0123002B6ED1002851D1022350
:1048580084F83E30012201462068FFF7D9FF23681B
:10486800334A934203D002F58062934203D15A6CD3
:1048780042F400425A6423682D4A934249D0B3F166
:10488800804F46D0A2F57C42934242D002F5806226
:1048980093423ED002F5806293423AD002F57842C4
:1048A800934236D002F57052934232D0A2F5943238
:1048B80093422ED01A6842F001021A60002032E0BA
:1048C800042908D008290DD094F84130DBB2013B07
:1048D80018BF0123B7E794F83F30DBB2013B18BF9C
:1048E8000123B0E794F84030DBB2013B18BF012345
:1048F800A9E7042805D0082807D0022384F8413006
:10490800A8E7022384F83F30A4E7022384F8403064
:10491800A0E79A6802F00702062A07D01A6842F050
:1049280001021A60002010BD0120FCE70020FAE710
:104938000000014010B504460846002948D194F803
:104948003E30DBB2013B18BF0123002B40F0A380AF
:10495800002856D1022384F83E302268D36843F0F9
:104968000203D360012201462068FFF751FF236844
:104978004C4A934203D002F58062934203D15A6CA9
:1049880042F400425A642368464A934278D0B3F10D
:10499800804F75D0A2F57C42934271D002F58062B7
:1049A80093426DD002F58062934269D002F5784255
:1049B800934265D002F57052934261D0A2F59432C9
:1049C80093425DD01A6842F001021A60002061E04B
:1049D800042908D008290DD094F84130DBB2013BF6
:1049E80018BF0123B1E794F83F30DBB2013B18BF91
:1049F8000123AAE794F84030DBB2013B18BF01233A
:104A0800A3E7042824D008282BD0022384F84130B7
:104A18000C2842D801A353F820F000BF63490008CE
:104A2800A34A0008A34A0008A34A00085F4A0008EE
:104A3800A34A0008A34A0008A34A0008714A0008CC
:104A4800A34A0008A34A0008A34A00087D4A0008B0
:104A5800022384F83F302268D36843F00403D3600C
:104A680080E7022384F840302268D36843F00803C3
:104A7800D36077E72268D36843F01003D36071E707
:104A88009A6802F00702062A09D01A6842F0010261
:104A98001A60002010BD0120FCE70120FAE7002081
:104AA800F8E700BF0000014001F01F014FF0040CBF
:104AB8000CFA01FC036A23EA0C030362036A8A40C6
:104AC800134303627047000010B5044608460029E6
:104AD8003BD194F84230DBB2013B18BF0123002BD5
:104AE80067D100284AD1022384F8423004220146C3
:104AF8002068FFF7D9FF2268536C43F400435364DE
:104B080023682E4A934249D0B3F1804F46D0A2F58C
:104B18007C42934242D002F5806293423ED002F535
:104B2800806293423AD002F57842934236D002F539
:104B38007052934232D0A2F5943293422ED01A6822
:104B480042F001021A60002032E0042908D0082946
:104B58000DD094F84530DBB2013B18BF0123BEE706
:104B680094F84330DBB2013B18BF0123B7E794F850
:104B78004430DBB2013B18BF0123B0E7042805D05D
:104B8800082807D0022384F84530AFE7022384F8C9
:104B98004330ABE7022384F84430A7E79A6802F071
:104BA8000702062A07D01A6842F001021A6000209C
:104BB80010BD0120FCE70020FAE700BF000001401B
:104BC80090F83C20012A3DD010B40346012280F819
:104BD8003C20022280F83D2002685068946820F04A
:104BE800700C086840EA0C0050601A681648824247
:104BF8001AD0B2F1804F17D0A0F57C40824213D072
:104C080000F5806082420FD000F5806082420BD0B0
:104C180000F57840824207D000F57050824203D0F8
:104C2800A0F59430824204D124F0800449682143DD
:104C38009160012283F83D20002083F83C005DF854
:104C4800044B70470220704700000140024690F86C
:104C58003C30012B21D0012380F83C30CB6823F471
:104C680040738868034323F480634868034323F44C
:104C780000630868034323F480530869034323F45B
:104C880000534869034323F48043C9690B431168FF
:104C98004B64002082F83C00704702207047704740
:104CA8007047000082B000230193019B01330193F8
:104CB800019A0F4B9A4215D80369002BF5DA0023A5
:104CC8000193036943F001030361019B01330193DD
:104CD800019A074B9A4208D8036913F0010FF4D1DF
:104CE800002000E0032002B070470320FBE700BF6C
:104CF800400D030084B010B5044603A880E80E00F8
:104D0800089B012B1FD1A36B23F48033A363E368B3
:104D180023F4840323F04003E360E36823F440139F
:104D2800E3600F9B012B09D02046FFF7BBFF069BD2
:104D3800012B1BD0BDE8104004B07047E36843F472
:104D48008013E360F0E7E36843F04003E360204644
:104D5800FFF7A8FF0C9B23B9A36B43F48033A3632D
:104D6800E5E7A36B23F48033A363E0E7A36843F08C
:104D78000603A360A36843F02003A360DAE70000FA
:104D8800022A0AD00922C36823F47053C360C36897
:104D980043EA8223C36000207047234B0B44234A15
:104DA80093422FD9224B0B44224A93422CD9A1F586
:104DB8007403A3F51053204A934227D9A1F18373B2
:104DC800A3F5E7431D4A934222D31D4B0B441D4ACA
:104DD80093421FD91C4B0B441C4A93421CD31C4BB7
:104DE8000B441C4A934219D3A1F1B773A3F5585346
:104DF800194A934214D3194B0B44194A934211D2BE
:104E08000722C0E70F22BEE70E22BCE70D22BAE751
:104E18000C22B8E70B22B6E70A22B4E70922B2E768
:104E28000822B0E70622AEE7405327FFFF340C0004
:104E3800401E1BFF3F420F007F4F120020D6130079
:104E480060B6E5FE5FE3160000D3CEFE40771B0098
:104E5800C05BB3FEC091210020753800E05459FEB4
:104E6800E09C4100836843F00103836000207047A1
:104E7800836823F0010383600020704782B0002319
:104E88000193019B01330193019A0F4B9A4215D864
:104E98000369002BF5DA00230193890141F0200111
:104EA8000161019B01330193019A074B9A4208D88B
:104EB800036913F0200FF4D1002000E0032002B0B2
:104EC80070470320FBE700BF400D030082B00023BA
:104ED8000193019B01330193019A0E4B9A4213D817
:104EE8000369002BF5DA0023019310230361019B6A
:104EF80001330193019A074B9A4208D8036913F0CA
:104F0800100FF4D1002000E0032002B07047032006
:104F1800FBE700BF400D0300D0F800381943C0F884
:104F2800001800207047000084B02DE9F0410446C5
:104F380007A880E80E00002306E003F1400204EB16
:104F480082020021516001330E2BF6D9119F27BB35
:104F5800D4F8043843F00203C4F80438A36B43F4CC
:104F68000013A363A36B23F40023A363A36B23F4AD
:104F78008023A3630023C4F8003E04F50065D4F839
:104F88000038C4F800380C9B012B14D1099B6BB96D
:104F980000212046FFF7C0FF11E0A36B23F40013A4
:104FA800A363A36B43F40023A363E3E70121204633
:104FB800FFF7B2FF03E003212046FFF7ADFF102102
:104FC8002046FFF75BFF804608B14FF001082046F6
:104FD800FFF77CFF08B14FF0010800232B616B61DC
:104FE800EB610AE0C3B94FF00060C2F80009002283
:104FF8000A614FF67F328A6001330799994210D9C6
:1050080004EB431202F51061D2F800090028E9DB2D
:105018000020C2F80009EAE74FF09040C2F8000902
:10502800E5E700230AE0C3B14FF0904CC2F800CB8B
:10503800002202614FF67F3282600133994211D912
:1050480004EB431202F53060D2F8006B002EEADB65
:105058004FF0000CC2F800CBEAE74FF0006CC2F842
:1050680000CBE5E72B6923F480732B610023A36150
:105078006FF0804363610A9B1BB9A36943F0100377
:10508800A361A2690B4B1343A3610D9B1BB1A369D9
:1050980043F00803A361012F04D04046BDE8F04166
:1050A80004B07047A36943F0804343F00403A3614D
:1050B800F3E700BF00383C80D0F8083813F0060347
:1050C80007D0022B07D0062B01D00F2070470220F3
:1050D8007047002070470220704710B591F800C053
:1050E8004B78012B23D000F5006ED0F81C380CF05B
:1050F8000F040122A24043EA0243C0F81C3800EB27
:105108004C10D0F8003B13F4004F0ED1D0F8003B00
:10511800CA68C2F30A02097942EA8142134343F09A
:10512800805343F40043C0F8003B002010BDD0F882
:105138001C280CF00F0E03FA0EF39BB21343C0F8B1
:105148001C3800EB4C10D0F8003913F4004FECD1A8
:10515800D0F80039CA68C2F30A02097942EA8142E2
:1051680042EA8C52134343F0805343F40043C0F89F
:105178000039DAE730B40B784A78012A26D000EBF8
:105188004313D3F8002B002A52DBD0F83C480A78A6
:1051980002F00F024FF0010C0CFA02F224EA02426C
:1051A800C0F83C28D0F81C28097801F00F010CFA47
:1051B80001FC22EA0C42C0F81C28D3F8001B234A41
:1051C8000A40C3F8002B002030BC704700EB4313A3
:1051D800D3F80029002A1EDBD0F83C580A7802F0E0
:1051E8000F02012404FA02F292B225EA0202C0F880
:1051F8003C28D0F81C28097801F00F018C40A4B293
:1052080022EA0402C0F81C28D3F80019104A0A4000
:10521800C3F80029D7E7D3F8002942F00062C3F8A1
:105228000029D3F8002942F08042C3F80029D3E7C7
:10523800D3F8002B42F00062C3F8002BD3F8002B00
:1052480042F08042C3F8002B9FE700BF0078F3EFDD
:10525800007833EC70B40B784C78012C29D000EB33
:10526800431000F530631C69E40CE4041C611C69FC
:1052780024F0FF5424F4C0141C618C690CB1CC6870
:105288008C61CC68CC611C6944F400241C611C69E5
:10529800CD69C5F3120C44EA0C041C61012A66D0DE
:1052A800D0F8003B43F00443C0F8003B002070BC3A
:1052B80070478C696CBB00EB4314D4F8105925F087
:1052C800FF5525F4C015C4F81059D4F8105945F401
:1052D8000025C4F81059D4F81059ED0CED04C4F8A1
:1052E8001059012A34D000EB4313D3F8002942F0B7
:1052F8000442C3F800298B69002BD7D0D0F8343882
:10530800097801F00F0101228A401343C0F83438AC
:10531800CCE700EB431404F510642569ED0CED04AB
:105328002561256925F0FF5525F4C0152561CD684F
:105338008E69AE4200D98D61256945F40025256145
:1053480025698E69C6F3120C45EA0C052561C8E784
:105358004A691AB100EB4311C1F8142900EB431351
:10536800D3F8002942F00442C3F800299EE70A69ED
:10537800002A95D05A6193E710B483B002460023FF
:105388000193487801280BD00B7802EB4313D3F82C
:10539800000B00282DDB002003B05DF8044B70479C
:1053A8000B7802EB4313D3F80049002C01DB0020F3
:1053B800F2E7D3F8004944F00064C3F800490B78D9
:1053C80002EB4313D3F8004944F08044C3F8004982
:1053D800019B01330193019C42F210739C42DBD87C
:1053E8000B7802EB4313D3F80039002BF0DB0020D5
:1053F800D2E7D3F8000B40F00060C3F8000B0B783D
:1054080002EB4313D3F8000B40F08040C3F8000BC5
:10541800019B01330193019842F21073984208D816
:105428000B7802EB4313D3F8003B002BF0DB002092
:10543800B2E70120B0E710B59DF8084084B90333FE
:105448004FEA930E4FF0000C08E000EB023303F52F
:10545800805351F8044B1C600CF1010CF445F4D353
:10546800002010BDF0B583B00B784C78012C33D0F8
:1054780000EB431303F5306CDCF81040E40CE40453
:10548800CCF81040DCF8104024F0FF5424F4C01489
:10549800CCF810408C69002C40F0C780DCF8104034
:1054A800CD68C5F312052C43CCF81040DCF8104049
:1054B80044F40024CCF81040012A00F0D0800A7986
:1054C800012A00F0D380D3F8002B42F00442C3F83D
:1054D800002B002003B0F0BD8C6984BB00EB4314A3
:1054E800D4F8105925F0FF5525F4C015C4F8105903
:1054F800D4F8105945F40025C4F81059D4F81059B7
:10550800ED0CED04C4F81059012A4CD000EB4313FC
:10551800D3F8004944F00444C3F800490C79012C3D
:105528006AD08B69002BD4D0D0F83438097801F0D0
:105538000F0101228A401343C0F83438C9E700EB51
:105548004314D4F81059ED0CED04C4F81059D4F8EC
:10555800105925F0FF5525F4C015C4F81059D4F892
:1055680010698D69CF683D44013DB5FBF7F5494F9A
:1055780007EAC5453543C4F81059D4F810598E695F
:10558800C6F312063543C4F8105904F510640D79B2
:10559800012DB9D1256925F0C0452561256945F05A
:1055A80000552561B0E74A691AB100EB4314C4F805
:1055B80014290A79012A08D000EB4313D3F80029EB
:1055C80042F00442C3F8002983E7D0F8082812F40F
:1055D800807F08D100EB4311D1F8002942F0005236
:1055E800C1F80029E8E700EB4311D1F8002942F09F
:1055F8008052C1F80029DFE7D0F8084814F4807F0A
:105608000CD1D3F8004944F00054C3F80049009283
:105618000B8B0A780969FFF70EFF5AE7D3F80049A0
:1056280044F08054C3F80049F1E7CD682C44013CAC
:10563800B4FBF5F4A4B204FB05F5CD61DCF8105019
:10564800144E06EAC4442C43CCF81040DCF8104051
:10565800CD69C5F312052C43CCF810402CE70A6934
:10566800002A3FF42CAFCCF8142028E7D0F80828FB
:1056780012F4807F06D1D3F8002B42F00052C3F811
:10568800002B20E7D3F8002B42F08052C3F8002B00
:1056980019E700BF0000F81F10B5844608464FEA16
:1056A800920E02F00302002305E00CF58051096810
:1056B80040F8041B01337345F7D37AB10CF5805CCD
:1056C800DCF800400021CBB2DB0024FA03F300F839
:1056D800013B0131013A92B2002AF4D110BD0B7896
:1056E8004A78012A14D000EB4310D0F8002B002A86
:1056F80006DB2BB1D0F8003B23F08043C0F8003B19
:10570800D0F8003B43F40013C0F8003B002070477A
:1057180000EB4310D0F80029002A06DB2BB1D0F8A3
:10572800003923F08043C0F80039D0F8003943F439
:105738000013C0F80039E9E70B784A78012A0ED03F
:1057480000EB4310D0F8003B23F40013C0F8003BF3
:105758000B79023BDBB2012B15D90020704700EB17
:105768004310D0F8003923F40013C0F800390B793E
:10577800023BDBB2012BF0D8D0F8003943F080535C
:10578800C0F80039E9E7D0F8003B43F08053C0F88F
:10579800003BE2E7D0F8003823F4FE63C0F8003895
:1057A800D0F80038090101F4FE610B43C0F8003855
:1057B80000207047D0F8003E23F00303C0F8003EF5
:1057C800D0F8043823F00203C0F8043800207047EA
:1057D800D0F8003E23F00303C0F8003ED0F80438A8
:1057E80043F00203C0F8043800207047426980691A
:1057F80010407047D0F8183800F50060C0691840AC
:10580800000C7047D0F8183800F50060C0691840DF
:1058180080B2704700EB4111D1F8082B00F5006009
:10582800406910407047D0F81028D0F8343801F09B
:105838000F0C23FA0CF3DB01DBB2134300EB41102E
:1058480000F51060806818407047406900F001005A
:10585800704738B50546C36823F0C043C3600129C3
:1058680013D019BBC36843F08043C36000240120F0
:10587800FBF712FD01342846FFF7E7FF08B1312C8A
:10588800F5D9322C14D0002038BDC36843F000533A
:10589800C36000240120FBF7FFFC01342846FFF712
:1058A800D4FF0128EDD0312CF4D9EAE70120EBE749
:1058B8000120E9E7D0F8003923F4FF6323F0070358
:1058C800C0F80039D0F8043843F48073C0F80438BD
:1058D8000020704710B4046C154B9C4203D9D0F8D3
:1058E800003B002B16DB0024C0F8104BD0F8104BFF
:1058F80044F40024C0F8104BD0F8104B44F01804BE
:10590800C0F8104BD0F8104B44F0C044C0F8104B0E
:10591800012903D000205DF8044B7047C0F8142B10
:10592800D0F8003B43F08023C0F8003BF2E700BF0B
:105938000A30544F10B5D0F8D43203F1B00250F801
:1059480022408CB100EB820043687BB194F80002DE
:10595800FF280DD09B6894F8012221469847FF2321
:1059680084F80032002010BD0320FCE70020FAE78D
:105978000020F8E70A2303800048704788000020C9
:10598800F8B506460F4F8221384600F03AFC054626
:105998000121384600F035FC04468121384600F0E4
:1059A80030FC0DB11022AA711CB1402222710022D4
:1059B800627118B140220271002242714323338080
:1059C8000048F8BD0C000020F8B506460F4F8221AC
:1059D800384600F016FC05460121384600F011FC57
:1059E80004468121384600F00CFC0DB11022AA7142
:1059F8001CB1402222710022627118B1402202714A
:105A080000224271432333800048F8BD0C00002077
:105A1800F8B506460F4F8221384600F0F2FB0546DE
:105A28000121384600F0EDFB04468121384600F09C
:105A3800E8FB0DB11022AA711CB1002222710222CA
:105A4800627118B10022027102224271432333802D
:105A58000048F8BD0C00002038B5D0F8D432B03377
:105A680050F8235095B1044601F0EBFDC5F80C023F
:105A7800D4F8D432B03304EB83046368DB6805F5EB
:105A88000371D5F804029847002038BD0320FCE7CD
:105A980038B5D0F8C852D0F8D432B03350F82340D3
:105AA80084B301F00F0303EB830200EB82029269D7
:105AB8004AB103EBC30C05EB8C05AD6CB2FBF5FCEE
:105AC80005FB1C2292B10023C4F81432D0F8D4325A
